S02100005B746B696D3035385D5F6C61625B31305D5F706172745B325D2E7372656352
S113000045C0000060C000005EC000005CC000008D
S11300105AC0000058C0000056C0000054C0000080
S113002052C0000050C000004EC000004CC0000090
S11300304AC00000DEC0000046C0000044C000000A
S113004042C0000040C000003EC000003CC00000B0
S11300503AC0000038C0000036C0000034C00000C0
S113006032C0000030C000002EC000002CC00000D0
S11300702AC0000028C0000026C0000024C00000E0
S113008022C0000020C000001EC0000011241FBEBA
S1130090CFEFD0E4DEBFCDBF11E0A0E0B1E0EAE2F3
S11300A0F3E000E00BBF02C007900D92A834B10743
S11300B0D9F721E0A8E4B1E001C01D92A835B20748
S11300C0E1F7E4D030C19CCF181619065CF008950E
S11300D0000021503109E1F74F5F5F4F8417950706
S11300E019F4089540E050E027E033E0F1CF5E9842
S11300F088B95F9A00005F9882E090E0E5CF0895A8
S113010081E0F5CF0895813118F48158F0CF089536
S11301108155EDCF089584E690E0D6DF88E3E7DFEC
S113012086E0E5DF8FE0E3DF81E0E1DF8AE090E075
S1130130CBCF08955E9A88B95F9A00005F9881E0FA
S113014090E0C2CF0895FF920F931F93CF93DF9354
S11301508C01892B19F5C1E0D0E0FF24F3948C2F96
S1130160D2DF80910001FE01EF5FFE4FE80FF11D29
S113017032978081DFDF809100019E01280F311DBD
S11301802434310511F4F09200012196C131D105D6
S113019031F7809100018F5F80930001C801DF91E6
S11301A0CF911F910F91FF9008958BE08093810070
S11301B08DE790E0909389008093880082E080939B
S11301C06F001092850010928400809144019091F8
S11301D04501A0914601B091470180935401909349
S11301E05501A0935601B09357018FB780688FBF14
S11301F008951F920F920FB60F9211248F939F931D
S1130200AF93BF938091540190915501A0915601F1
S1130210B09157010197A109B109809354019093BA
S11302205501A0935601B0935701892B8A2B8B2B30
S113023099F481E0809353018091440190914501A8
S1130240A0914601B09147018093540190935501C8
S1130250A0935601B0935701BF91AF919F918F9195
S11302600F900FBE0F901F901895609344017093E8
S11302704501809346019093470160935401709324
S11302805501809356019093570108958FEF8AB9D1
S11302901BB881B912B8E8E4F1E010828CE291E075
S11302A0A0E0B0E081839283A383B48385839683A3
S11302B0A783B08783EA90E09287818761E070E04A
S11302C080E090E0D2DF71DF26DF1ADFC8E4D1E0FE
S11302D04D815E816F81788589819A81AB81BC81F2
S11302E0481759076A077B0760F08881E985FA8512
S11302F0082E000C990B099588831D821E821F828B
S113030018868D819E81AF81B8850196A11DB11D8E
S11303108D839E83AF83B887809153018823E1F353
S10D032010925301D5CFF894FFCFDB
S113032A01202020202020202020202020202020DE
S113033A435331323042206973204C4547454E4479
S113034A2E2E2E207761697420666F7220697420BC
S113035A44415259212020202020202020202020DE
S10B036A202020000100000026
S9030000FC
